:020000040800F2
:1000000030040020C10100088F0E00085D060008C2
:100010008D0E0008AB020008ED160008000000007D
:10002000000000000000000000000000C1140008F3
:10003000A103000800000000910E000899150008B7
:10004000DB010008DB010008DB010008DB01000820
:10005000DB010008DB010008DB010008DB01000810
:10006000DB010008DB010008DB010008DB01000800
:10007000DB010008DB010008DB010008DB010008F0
:10008000DB010008DB010008DB010008DB010008E0
:10009000DB010008DB010008DB010008DB010008D0
:1000A000DB010008DB010008DB010008DB010008C0
:1000B000DB010008DB010008DB010008DB010008B0
:1000C000DB010008DB010008DB010008DB010008A0
:1000D000DB010008DB010008DB010008DB01000890
:1000E000DB010008DB010008DB010008DB01000880
:1000F000DB010008DB010008DB010008DB01000870
:10010000DB010008DB010008DB010008DB0100085F
:10011000DB010008DB010008DB010008DB0100084F
:10012000DB010008DB010008DB010008DB0100083F
:10013000DB010008DB010008DB010008DB0100082F
:10014000DB010008DB010008DB010008DB0100081F
:10015000DB010008DB010008DB010008DB0100080F
:10016000DB010008DB010008DB010008DB010008FF
:10017000DB010008DB010008DB010008DB010008EF
:10018000DB010008DB010008DB010008DB010008DF
:10019000DB010008DB010008DB010008DB010008CF
:1001A000DB010008DB010008DB010008DFF80CD0F0
:1001B00000F04AF8004800470D1C000830040020F9
:1001C0000648804706480047FEE7FEE7FEE7FEE7F1
:1001D000FEE7FEE7FEE7FEE7FEE7FEE79D15000807
:1001E000AD0100082DE9F05F0546002092469B46D0
:1001F00088460646814640241BE02846414647463D
:10020000224600F042F853465A46C01A914110D394
:1002100011461846224600F029F82D1A67EB01080E
:100220004F4622460120002100F020F817EB00097C
:100230004E41201EA4F10104DFDC484631462A4627
:100240004346BDE8F09F0000064C074D06E0E0681D
:1002500040F0010394E8070098471034AC42F6D30D
:10026000FFF7A8FFF833000818340008202A04DB41
:10027000203A00FA02F1002070479140C2F12003B9
:1002800020FA03F3194390407047202A04DB203AF8
:1002900021FA02F00021704721FA02F3D040C2F1A6
:1002A00020029140084319467047FEE710B501212E
:1002B000CC05204600F0FCFD2046BDE810400021A2
:1002C00000F0F6BD01460020024A52680A4200D002
:1002D0000120704700B0024030B500242A4B196855
:1002E0002A4A114019601968026811431960596B54
:1002F00021F007015963596B426811435963416802
:10030000002928D001292DD0022930D0032933D04B
:10031000C1680A010169090244692403856821430F
:1003200015430D43996B0D439D638169D963196C26
:100330006FF30D011964196CC26911431964818C42
:1003400009045A6C02F040425A645A6C006A024333
:100350000A435A6430BDC1680A02018A0904047D57
:100360002406DBE7C1680A02018A0904D6E7C168EE
:100370004A010169C902D1E7C1684A0101698902DC
:100380004469E403CAE7000000B00240FCE0FCFF5F
:100390000248016841F001010160704700B002406D
:1003A0007047000070B586B00121084600F072FD6C
:1003B0000121102000F098FD1E4E07220A21304630
:1003C00000F03AF907220921304600F035F90024FF
:1003D0008DF8164001208DF8170002258DF8145075
:1003E000410204918DF8155004A9304600F0E6F85A
:1003F0008DF814506802049004A9304600F0DEF82D
:100400004FF4E1300090ADF80440ADF80640ADF88F
:100410000840ADF80C400C20ADF80A00064C6946C7
:10042000204601F0FDF80121204601F0E5F806B074
:1004300070BD0000000002400010014001B502E064
:100440000098401E009000980028F9D108BD0022B5
:100450004FF0204310280AD0B0F5807F09D0B0F5C6
:10046000805F09D0D3F85801814309D107E0586E65
:10047000FAE7D3F88400F7E7D3F8A400F4E7012201
:1004800010467047D0E9001211438268C068521EBE
:10049000520142EA402001430148016070470000D8
:1004A000500100A070B50468A100A1F1C041D1F8CD
:1004B0004011CE0BF603D0E901121143D0E903231A
:1004C0001A4311434269C36911438269056A1143A2
:1004D0001943426A2943114331434FF02046002C0F
:1004E0003CD0D6F840416FF30E042B432243134314
:1004F000C6F8403102689200A2F1C042C2F8401131
:10050000016871B38900A1F1C041D1F8481101F02F
:100510007043816A0A684C68521E641E42EA0414E1
:100520008A68521E44EA02240A8A521E44EA02429F
:100530001A43D6F8483103F07043CC68898A641EA8
:100540002403491E44EA01511943C6F848110068C2
:100550008000A0F1C040C0F8482170BDC6F840112D
:10056000CEE7FFE7D6F8481101F07041806A0268D3
:100570004368521E5B1E42EA03138268521E43EA1E
:100580000223C268521E43EA0233028A521E43EA21
:100590000243828A007E521E43EA0252401E42EA11
:1005A00000600843C6F8480170BD000002490A68AF
:1005B00042EA400008607047540100A02DE9F04174
:1005C000002201274FF0030C07FA02F50B682B40BD
:1005D000AB422CD1066853000CFA03F4A643066024
:1005E0000E79D0F800809E4046EA080606600E7933
:1005F000012E01D0022E12D18668A64386604E7964
:10060000D0F808809E4046EA080686604668AE43F9
:10061000466045688E799640B6B235434560C568F8
:10062000A543C560CC799C40C3681C43C460521C80
:10063000102AC9D3BDE8F08110B54B07DB0E9A40F4
:10064000C90800EB8100016A0F249C40A1430162AC
:10065000016A1143016210BD01837047FEE700008B
:10066000F0B58BB00446E50A04F01F07C4F3451645
:10067000FFF71CFE4FF440300190022002900496D8
:100680000397059520040012000E06900C4C60683C
:100690000790002008904FF4F07009904FF44870D4
:1006A0000A9001A8FFF718FEFFF772FE0220FFF77D
:1006B00009FE0028FAD0208800F0C8FA0BB0F0BD7F
:1006C00010000020F0B5074600240B4D4FF448768B
:1006D00008E020222146384600F010F8E8688088BB
:1006E000204484B2B44205D2E8688188081980B2F7
:1006F0008842EED2F0BD00001000002010B4203A75
:10070000D3B2054AD2681468D2885A4304EB420235
:1007100010BC00F025B80000100000202DE9F041C9
:1007200080460D4600240D4E4FF4487708E02146E0
:100730004046FFF7E3FFF0688088204484B26D1CD8
:10074000BC4208D22A78002A05D0F06881880819AE
:1007500080B28842EBD2BDE8F0810000100000209A
:100760002DE9F04300254FF4C8635843DFF8789033
:10077000D9F804C0D9F80C7030E0002326E00C262C
:10078000B4FBF6F6F6004FF0800808FA06F832F8E7
:10079000156048FA03F818EA060F01D10C2C08D9A5
:1007A0004FF0010808FA03F816EA080F07D10C2CDD
:1007B00005D90CEB4106B9F80240345204E00CEBC9
:1007C0004106B9F800403452491C5B1CBC889C426D
:1007D000D5D8BB88C3F5487319446D1CFB88AB4260
:1007E000CBD8BDE8F0830000100000202DE9FC5FAD
:1007F000012140F2FF1000F04DFB4FF00408CDF84E
:10080000008002208DF805008DF8040000208DF88E
:1008100006008DF807006946AA48FFF7CFFE0E22B2
:100820000221A848FFF708FF4FF00809CDF8009013
:100830006946A448FFF7C2FE0E220321A148FFF734
:10084000FBFE4FF4807ACDF800A069469D48FFF783
:10085000B5FE0E2208219B48FFF7EEFE012400940E
:1008600069469948FFF7AAFE092200219648FFF73A
:10087000E3FE4FF4006BCDF800B069469348FFF7F4
:100880009DFE0E220B219148FFF7D6FE200300901B
:1008900069468E48FFF792FE0E220C218B48FFF727
:1008A000CBFE0220009069468748FFF787FE0922A9
:1008B00001218548FFF7C0FE402500956946844820
:1008C000FFF77CFE0E2206218148FFF7B5FE2020AF
:1008D000009069467F48FFF771FE0E2205217D4892
:1008E000FFF7AAFE009569467A48FFF767FE0E22D9
:1008F00006217848FFF7A0FE600300906946714822
:10090000FFF75CFE0E220D216E48FFF795FEA60252
:10091000009669466E48FFF751FE09220A216C488D
:10092000FFF78AFEE003009069466648FFF746FE3F
:100930000E220F216348FFF77FFE00946946664848
:10094000FFF73CFE0E2200216348FFF775FE80276B
:10095000009769466148FFF731FE0E2207215F4884
:10096000FFF76AFECDF8008069465B48FFF726FE78
:100970000E2202215848FFF75FFE4FF01008CDF815
:10098000008069465348FFF719FE0E2204215148A2
:10099000FFF752FE2003009069464D48FFF70EFE18
:1009A0000E220C214A48FFF747FE00954C4D694640
:1009B0002846FFF703FE0E2206212846FFF73CFEDD
:1009C000CDF800B069464248FFF7F8FD0E220B2132
:1009D0003F48FFF731FECDF8008069463E48FFF7FB
:1009E000EDFD0E2204213C48FFF726FECDF80090D5
:1009F00069463648FFF7E2FD0E2203213348FFF730
:100A00001BFECDF800A069462F48FFF7D7FD0E2248
:100A100008212D48FFF710FE4FF40079CDF8009023
:100A200069462948FFF7CAFD0E2209212648FFF72B
:100A300003FE009769462648FFF7C0FD0E220721F6
:100A40002348FFF7F9FD009669462348FFF7B6FDF6
:100A50000E220A212048FFF7EFFDCDF800906946ED
:100A60001D48FFF7ABFD0E2209211B48FFF7E4FDEF
:100A700000961C4E69463046FFF7A0FD0E220A2163
:100A80003046FFF7D9FDCDF8008002208DF8050033
:100A90008DF8044000208DF806008DF80740694667
:100AA0002846FFF78BFD009769462846FFF786FD2D
:100AB00010212846FFF7D0FD80212846FFF7CCFD06
:100AC000BDE8FC9F001C0240000402400000024000
:100AD00000180240001002400020024000080240BE
:100AE000000C0240001402400148C068704700003A
:100AF0001000002010B590B00121880600F0F4F934
:100B00000121C80500F0C6F9FFF770FE00F044FCB3
:100B1000002401940294039404940D940E940F9471
:100B2000042207214FF4C07000F06AFA4FF48030BD
:100B300000F056FA012000F05DFA3D2000F034FA92
:100B40000028FAD0059406942E20079017200890CC
:100B500040F24E30099040F2F7100A9040F26230B5
:100B60000B9040F20D200C9001A800F0DBF810B0C3
:100B700010BD000030B591B02F20019040F24E30F2
:100B800002901820039040F2F7100490032405947B
:100B9000FF20069000200790089009900A904FF4DB
:100BA00080600B9005200C9040F243600E90C01EB8
:100BB0000F904FF4F07010904FF050400D90144D86
:100BC00001A9284600F010F9059412490D9161021F
:100BD0000B9107210C910E4C01A98034204600F0A6
:100BE00003F9012000F04CF90121284600F0F0F84B
:100BF0000121204600F0ECF8012000F041F9064800
:100C000000F00CF8012000F07DF811B030BD0000BC
:100C10008468014000B80BD0200000200149C86062
:100C200070470000100000200649002804D0064844
:100C300048600120886070474FF0504048600020B5
:100C4000886070471000002000B80BD00149088070
:100C5000704700001000002010B50949896800297C
:100C600008D00146074800F0B1F8BDE81040012067
:100C700000F006B901460348803800F0A7F8F4E711
:100C800010000020046901402DE9FC410121802071
:100C900000F000F94FF48064009401208DF8040006
:100CA00000218DF806108DF807008DF805100C4F07
:100CB00069463846FFF782FC66000096694638466A
:100CC000FFF77CFCA500009569463846FFF776FCE7
:100CD00003481830048006800580BDE8FC810000D0
:100CE000001C02400649002804D0086840F00100BA
:100CF00008607047086820F0010008607047000035
:100D0000186801400649002804D0086840F4803083
:100D100008607047086820F4803008607047000061
:100D20001868014030B5264A136826490B40136005
:100D3000038A1B04146845692C431C431460121D6C
:100D400013680B401360038B1B041468C5692C43A4
:100D50001C431460121D13680B401360038C1B04AA
:100D60001468456A2C431C431460121D13680B4021
:100D70001360018D09041368C46A23430B43136095
:100D8000111D0A68104B1A400A60D0E900231A436B
:100D9000D0E9023423431A430B681A430A60416BBB
:100DA0000A02018E0B04064924310C6804F07F44CA
:100DB0000C600C68806B134304431C430C6030BD13
:100DC0000868014000F800F08F88FE0F416170470D
:100DD000002904D0016841F00101016070470168F9
:100DE00021F001010160704770B58A8812044368E0
:100DF00003F4704343600B68134343608A89120411
:100E0000836803F4704383608B68134383600269D3
:100E100022F0070202610A690261CA6913020A8CA0
:100E2000120491F8244024068569002585618E69A5
:100E300022431E4316438661426922F0FF0242614B
:100E40004A694261C26940F207739A43C261D1E9BB
:100E50000A231A43C261826A85620A6B82620A8F20
:100E60001204C36A03F0E023C3624B6B1343C362F3
:100E7000026B6FF30A020263C96B016370BD00006D
:100E8000014908607047000024680140FEE7704790
:100E900070470000054A002903D011680143116022
:100EA000704711688143116070470000303802407C
:100EB000054A002903D01168014311607047116889
:100EC000814311607047000010380240054A002934
:100ED00003D01168014311607047116881431160AC
:100EE0007047000038380240054A002903D01168D5
:100EF0000143116070471168814311607047000021
:100F00004438024070B5244B196801F00C01234CA1
:100F100000291ED0224E04291DD008291DD00460AE
:100F2000196801F0F00109091E4A545C0168E140AA
:100F300041601C6804F4E054A40A145D21FA04F42E
:100F400084601B6803F460435B0BD25CD140C160DA
:100F500070BD0460E4E70660E2E70F4A121F116803
:100F6000C1F38055116801F03F0135B1B6FBF1F1D5
:100F70001468C4F38814614305E0B4FBF1F114680C
:100F8000C4F3881461431268C2F30142521C520038
:100F9000B1FBF2F10160C3E7083802400024F4001D
:100FA00040787D01000000200246002051090129FF
:100FB0000BD002290DD00949096802F01F02012354
:100FC00093400B4200D001207047044974390968EE
:100FD000F3E70249091F0968EFE70000743802408F
:100FE000034A116821F44031014311607047000049
:100FF0008C380240014908677047000000004742F2
:10100000800140EA0160024940EA027008607047CE
:10101000883802402DE9FC5F0121FC20FFF73AFFF0
:1010200002208DF804008DF8050000208DF80600E0
:101030008DF80700012000906946D148FFF7BEFAFD
:101040000C220021CE48FFF7F7FA022000906946F3
:10105000CB48FFF7B3FA0C220121C948FFF7ECFA9D
:10106000042000906946C648FFF7A8FA0C22022126
:10107000C348FFF7E1FA082000906946C048FFF72F
:101080009DFA0C220321BE48FFF7D6FA10270097DD
:101090006946BB48FFF792FA0C220421B848FFF7D3
:1010A000CBFA4FF02008CDF800806946B448FFF72E
:1010B00085FA0C220521B248FFF7BEFA4FF4805999
:1010C000CDF800906946AE48FFF778FA0C22114639
:1010D000AB48FFF7B1FA4FF4005ACDF800A06946CB
:1010E000A748FFF76BFA0C220D21A548FFF7A4FAD9
:1010F000BD0200956946A248FFF760FA0C220E2156
:101100009F48FFF799FA6C00009469469C48FFF7E6
:1011100055FA0C220F219A48FFF78EFA0120009011
:1011200069469848FFF74AFA0C2200219548FFF7D4
:1011300083FA0220009069469248FFF73FFA0C229A
:1011400001219048FFF778FA009569468E48FFF72D
:1011500035FA0C220E218C48FFF76EFA009469468E
:101160008948FFF72BFA0C220F218748FFF764FA12
:101170000120009069468448FFF720FA0C220021E4
:101180008148FFF759FA0220009069467E48FFF730
:1011900015FA0C2201217C48FFF74EFA4FF0800B24
:1011A000CDF800B069467948FFF708FA0C2207210C
:1011B0007648FFF741FAE611009669467348FFF753
:1011C000FDF90C2208217148FFF736FAA0110090B2
:1011D00069466E48FFF7F2F90C2209216B48FFF7C8
:1011E0002BFA6011009069466848FFF7E7F90C2276
:1011F0000A216648FFF720FA2011009069466348EB
:10120000FFF7DCF90C220B216048FFF715FACDF847
:10121000009069465D48FFF7D1F90C2211465B4802
:10122000FFF70AFACDF800A069465848FFF7C6F95B
:101230000C220D215548FFF7FFF9009569465348E8
:10124000FFF7BCF90C220E215048FFF7F5F9009486
:1012500069464E48FFF7B2F90C220F214B48FFF7C1
:10126000EBF9009669464848FFF7A8F90C220821D7
:101270004548FFF7E1F9A011009069464248FFF7A1
:101280009DF90C2209214048FFF7D6F96011009022
:1012900069463D48FFF792F90C220A213A48FFF7C8
:1012A000CBF9402000903A4D69462846FFF786F971
:1012B0000C2206212846FFF7BFF9009769463148FE
:1012C000FFF77CF90C2204212E48FFF7B5F9CDF881
:1012D000008069462B48FFF771F90C220521294847
:1012E000FFF7AAF9012000902A4F69463846FFF718
:1012F00065F90C2200213846FFF79EF92011009075
:1013000069461F48FFF75AF90C220B211C48FFF7CA
:1013100093F9009469461B48FFF750F90C220F21FE
:101320001848FFF789F9009669461648FFF746F90D
:101330000C2208211348FFF77FF9CDF800B0694669
:101340002846FFF73BF90C2207212846FFF774F9DE
:101350000220009069460D48FFF730F90C22012168
:101360000A48FFF769F90120009069460748FFF72E
:1013700025F90C2200210548FFF75EF9BDE8FC9F26
:101380000014024000180240000C0240001002400D
:10139000001C02400008024000B593B0FFF73AFE7F
:1013A00001210846FFF792FD0220019007220292D8
:1013B0000421039104920590069007900120089063
:1013C000002009900A9110210B9140210C914FF4BB
:1013D000C0710D910E904FF400610F911090880034
:1013E000119001A8129008A8FFF75CF800F002F82D
:1013F00013B000BD2DE9FF41012500950826019697
:1014000002950024039420210120FFF720F80028F2
:10141000F9D16846FFF736F80A2000F041F80220BB
:10142000009001960295039420210120FFF70FF808
:101430000028F9D16846FFF725F8032000900196AF
:1014400004270297039420210120FFF700F80028C9
:10145000F9D16846FFF716F820210120FEF7F7FFC3
:101460000028F9D16846FFF70DF840F231200097C7
:1014700001960295039020210120FEF7E8FF002845
:10148000F9D16846FEF7FEFF40F26A50FFF78EF88A
:1014900020210120FEF7DBFF0028F9D1BDE8FF8104
:1014A00001B581B0054901984843009002E00098D9
:1014B000401E009000980028F9D10CBDA0860100C4
:1014C000704700001CB50021019100912E4A106860
:1014D00040F4803010604FF4A043106800F40030F6
:1014E00000900198401C0190009810B90198984212
:1014F000F3D11068800302D50120009000E0009134
:10150000009801283FD120484030016841F08051C7
:1015100001601E49086840F4404008601A480830DD
:1015200003680360036843F400430360036843F403
:10153000A0530360041F164B2360136843F08073AD
:10154000136013689B01FCD50A6842F480320A607C
:101550004A68D203FCD50A6842F400320A604A683D
:101560009203FCD50B4A40F205711160016821F02D
:1015700003010160016841F0020101600168C1F3EB
:1015800081010229FAD11CBD0038024000700040E0
:10159000195A4007003C02407047000010B512483D
:1015A000016841F4700101601048016841F00101D7
:1015B00001600E4A00210832116002680C4B1A408B
:1015C0000260031D0B4A1A60026822F48022026046
:1015D00006480C300160FFF775FF03494FF00060CB
:1015E0008039086010BD000088ED00E0003802403E
:1015F000FFFFF6FE10300024002904D0818941F459
:10160000005181817047818921F4005181817047A7
:101610000246002012880A4200D0012070470000D4
:101620007FB504460D46208A20F44051E8880843DF
:101630002082A08941F20C618843A9882A8911433C
:101640006A8902431143A181A08A20F44071A889CC
:101650000843A0826846FFF755FC1E48844202D02A
:101660001D48844201D1039800E00298A189090431
:1016700008D500EBC00101EB001029684900B0FB60
:10168000F1F007E000EBC00101EB001029688900D0
:10169000B0FBF1F06422B0FBF2F109010B096FF02D
:1016A00018056B4300EB8300A3891D044FF0320340
:1016B00007D503EBC000B0FBF2F000F007000843D1
:1016C00006E003EB0010B0FBF2F000F00F0008435F
:1016D00020817FBD00100140001401408088C0F3CC
:1016E00008007047C1F3080181807047FEE70000E1
:1016F0000FB4054B10B503A9044A029800F02CF86A
:1017000010BC5DF814FB0000E51B00082C00002055
:101710000FB4084B10B504A902AA039800F01CF8F6
:10172000044602A9002000F048FA204610BC5DF8EB
:1017300014FB0000BB1B000802E008C8121F08C110
:10174000002AFAD170477047002001E001C1121F42
:10175000002AFBD1704700002DE9FF4F8DB00F46E6
:101760000546002606E025280BD0DDE90F1290473C
:101770006D1C761C28780028F5D111B03046BDE8E4
:10178000F08F0024A246A1460122EC4900E0044368
:1017900015F8013F203B02FA03F00842F7D1287800
:1017A0002A2810D06FF02F022878A0F130010929E3
:1017B00014D80AEB8A0102EB410144F0020400EB69
:1017C000010A6D1CF0E701CF5FEA000A03D544F47B
:1017D0000054CAF1000A44F002046D1C28782E2837
:1017E00017D115F8010F44F004042A280ED06FF029
:1017F0002F022878A0F1300109290AD809EB8901C4
:1018000002EB410100EB01096D1CF2E757F8049B64
:101810006D1C28786C280FD006DC4C2817D068285F
:101820000DD06A2814D104E0742810D07A280FD182
:101830000DE044F400140AE044F4801401E044F4A0
:1018400040146978814202D104F580146D1C6D1C2E
:101850002A786E2A1FD00CDC632A31D004DC002ADF
:101860008BD0582A11D1A3E0642A68D0692A0CD100
:1018700065E0732A2ED004DC6F2A73D0702A04D15D
:101880009BE0752A6FD0782A6ED01046DDE90F12E2
:101890009047761C50E1C4F30250022806D003287A
:1018A00009D0042801CF09D0066045E101CFF11726
:1018B000C0E9006140E101CF06803DE106703BE1F7
:1018C00017F8040B8DF8000000208DF80100EB469E
:1018D000012003E057F804BB4FF0FF3061074FF0E1
:1018E000000102D40DE008F10101884649450FDAF4
:1018F0008045F8DB1BF808100029F4D108E008F156
:10190000010188468142FADB1BF808100029F6D154
:10191000DDE90F23AAEB08008146214600F036F9E5
:10192000304400EB080604E0DDE90F121BF8010B60
:101930009047B8F10108F7D221464846F7E00A215E
:10194000C4F302534FF0000B0891022B04D001CFD7
:10195000C117032B09D00AE0FF1D27F00707F7E89E
:10196000020108E032E01FE020E000B2C117042BC2
:1019700001D140B2C117031E71F1000307DA4FF025
:10198000000CD0EB0C006CEB01012D2302E02305D1
:1019900004D52B238DF82430012303E0E30701D085
:1019A0002023F7E7984658E00A2110E010210EE0C6
:1019B00010204FF0000B08900CE010214FF0000BAE
:1019C00044F004044FF00809089103E008214FF0A7
:1019D000000B0891C4F30253022B04D001CF002165
:1019E000032B06D006E0FF1D27F00707F7E80201EA
:1019F00003E080B2042B00D1C0B24FF000082307EF
:101A00002BD5702A07D0DDF820C08CF0100C5CEAD2
:101A10000B0C05D00EE040238DF82430012308E0A4
:101A200050EA010306D030238DF824308DF82520AC
:101A300002239846DDF820C08CF0080C5CEA0B0C01
:101A40000BD150EA010301D1630706D530238DF88D
:101A500024304FF00108A9F10109582A04D038A216
:101A60000B9208AA0A920BE03AA2F9E75B46089AA1
:101A7000FEF7B8FB0B9B9B5C0A9A521E0A921370EE
:101A800050EA0102F2D10A98ADEB000000F1200B00
:101A9000600702D524F4803401E04FF00109D945F4
:101AA00002DDA9EB0B0000E0002000EB0B0141443C
:101AB0000890AAEB010AE00306D4DDE90F232146D2
:101AC000504600F063F806444FF0000908E009A909
:101AD00011F80900DDE90F12904709F10109761CA0
:101AE000C145F4DBE0030CD5DDE90F232146504668
:101AF00000F04CF8064404E0DDE90F123020904776
:101B0000761C0899481E08900029F5DC08E00A9820
:101B10000A990078491C0A91DDE90F129047761C5A
:101B2000BBF10001ABF1010BF1DC21465046DDE9D0
:101B30000F2300F019F806446D1C1BE6092801006C
:101B40003031323334353637383961626364656633
:101B500000000000303132333435363738394142F5
:101B600043444546000000002DE9F04104460025AD
:101B70001E461746880404D405E039462020B047A5
:101B80006D1C641EF9D52846BDE8F0812DE9F041B1
:101B9000044600251E469046C80301D5302700E0C4
:101BA0002027880404D505E041463846B0476D1C1F
:101BB000641EF9D52846BDE8F0810A68531C0B6005
:101BC0001070704710B5064C20212046FFF720FD0D
:101BD0000028F9D02046BDE81040FFF77FBD000087
:101BE0000010014070B50446064DE1B22846FFF7EB
:101BF00079FD80212846FFF70BFD0028F9D020460B
:101C000070BD000000100140FFF7DCBFDEB0FFF741
:101C10003BF8FEF76FFFFEF7ADFF0120FFF762F81C
:101C20000020FFF701F84FF400442046FEF718FDAE
:101C30000120FEF7F9FFFF20FFF70EF82046FEF720
:101C40000FFDFF4861110180C1140180FC4980141F
:101C5000891C0880401EFEF7F1FBFEF7A3FB4FF640
:101C6000FF75F848FFF7D0FFC4B22146F6A0FFF792
:101C70003FFD722C7AD048DC622C78D0632C77D070
:101C8000652C76D0672CECD1EE48FFF7BDFFC4B2CF
:101C90000A20FEF7D3FBEB48FFF7B6FFC6B20A20D7
:101CA000FEF7CCFBE748FFF7AFFFC7B20A20FEF70D
:101CB000C5FBE448FFF7A8FF00F0FF080A20FEF785
:101CC000BDFBE048FFF7A0FFC1B23220FEF7B6FB34
:101CD000CDE90078029133462246DFA144A8FFF700
:101CE00017FDFEF701FFC08800EB800005EA400009
:101CF000FEF7E8FCFEF7F8FEC08844A900EB800080
:101D000005EA4000FEF70AFDABE7742C7ED0772C85
:101D10007DD0782C2ED0792CA3D1CA48FFF774FF40
:101D20000646C848FFF770FF0446C648FFF76CFF39
:101D3000A6F13002A4F1300330380090CDA108A8FC
:101D4000FFF7E6FCFEF7D0FEC08800EB400005EA96
:101D50008000FEF7B7FCFEF7C7FEC08808A900EBBD
:101D6000400005EA8000FEF7D9FC7AE72DE00AE2A0
:101D70008DE022E1B348FFF747FF0646B148FFF781
:101D800043FF0446AF48FFF73FFFA6F13002A4F13E
:101D9000300330380090BFA121A8FFF7B9FCFEF74F
:101DA000A3FEC08800EB400101EBC00080B2FEF74B
:101DB00089FCFEF799FEC08800EB400101EBC000F2
:101DC00080B221A9FEF7AAFC4BE79E48FFF71CFF53
:101DD000C0B25D900A20FEF731FB9A48FFF714FF6E
:101DE000C4B20A20FEF72AFB9648FFF70DFFC6B2E1
:101DF0000A20FEF723FB9348FFF706FFC7B20A202D
:101E0000FEF71CFB8F48FFF7FFFE01E086E004E1D0
:101E100000F0FF080A20FEF711FB8A48FFF7F4FEE6
:101E200000F0FF090A20FEF709FB8648FFF7ECFEE9
:101E300000F0FF0A0A20FEF701FB8248FFF7E4FEEC
:101E400000F0FF0B0A20FEF7F9FA7E48FFF7DCFEF0
:101E5000C1B23220FEF7F2FA8DE8C00F0691234698
:101E600094A158A85D9AFFF753FCFEF73DFEC08889
:101E700000EBC00080B2FEF725FCFEF735FEC088FF
:101E800058A900EBC00080B2FEF748FCE9E66D48B7
:101E9000FFF7BAFEC6B20A20FEF7D0FA6948FFF78C
:101EA000B3FEC7B20A20FEF7C9FA6648FFF7ACFED8
:101EB000C4B20A20FEF7C2FA6248FFF7A5FE00F09E
:101EC000FF080A20FEF7BAFA5E48FFF79DFE00F011
:101ED000FF090A20FEF7B2FA5A48FFF795FEC1B291
:101EE0003220FEF7ABFA8DE8100303913B463246F1
:101EF00077A153A8FFF70CFCFEF7F6FDC08800EBB6
:101F0000C00080B2FEF7DEFBFEF7EEFDC08853A9ED
:101F100000EBC00080B2FEF701FCA2E64948FFF7E3
:101F200073FEC4B20A20FEF789FA4648FFF76CFE3A
:101F3000C6B20A20FEF782FA4248FFF765FEC7B232
:101F40000A20FEF77BFA3F48FFF75EFE00F0FF082D
:101F50000A20FEF773FA3B48FFF756FE00F0FF0930
:101F60000A20FEF76BFA3748FFF74EFE00F0FF0A33
:101F70000A20FEF763FA3348FFF746FEC1B232206B
:101F8000FEF75CFA8DE8800704913346224656A19D
:101F90004EA8FFF7BDFBFEF7A7FDC08800EBC00011
:101FA00080B2FEF78FFBFEF79FFDC0884EA900EBC5
:101FB000C00080B2FEF7B2FB53E62248FFF724FED2
:101FC000C4B20A20FEF73AFA1E48FFF71DFEC6B259
:101FD0000A20FEF733FA1B48FFF716FEC1B2322083
:101FE000FEF72CFA00913346224645A149A8FFF797
:101FF0008FFBFEF779FDC08800EB800005EA40000A
:10200000FEF760FBFEF770FDC08849A900EB800079
:1020100005EA4000FEF782FB23E60A48FFF7F4FDDD
:10202000C4B20A20FEF70AFA0648FFF7EDFDC6B271
:102030000A20FEF703FA0348FFF7E6FDC7B26BE09C
:10204000181C024028000020BDD3CAD5B5BDD7D684
:10205000B7FBA3BA25630A005468697320636F6CE9
:102060006F722069733A20256325632563256325F4
:1020700063000000446973706C61792076616C754F
:10208000652064656D6F3A2079203D2025642564C4
:1020900025640000446973706C61792076616C7509
:1020A000652064656D6F3A2078203D2025642564A5
:1020B00025640000546869732069733A20256325FC
:1020C00063256325632563256325632563256300F5
:1020D000546869732069733A202563256325632555
:1020E0006325632563000000546869732069733AAF
:1020F0002025632563256325632563256325630008
:102100005468697320636F6C6F722069733A20257D
:1021100063256325630000000A20FEF78FF9344829
:10212000FFF772FD00F0FF080A20FEF787F930483C
:10213000FFF76AFD00F0FF090A20FEF77FF92C483F
:10214000FFF762FDC1B23220FEF778F98DE8800317
:1021500003913346224627A13FA8FFF7D9FAFEF79D
:10216000C3FCC08800EB800005EA4000FEF7AAFA35
:10217000FEF7BAFCC0883FA900EB800005EA4000EA
:10218000FEF7CCFA6DE51A48FFF73EFDC4B20A200F
:10219000FEF754F91648FFF737FDC6B20A20FEF7DE
:1021A0004DF91348FFF730FDC7B20A20FEF746F994
:1021B0000F48FFF729FDC0B2CDE900703346224633
:1021C00013A13AA8FFF7A4FAFEF78EFCC08800EB33
:1021D000800005EA4000FEF775FAFEF785FCC0882E
:1021E0003AA900EB800005EA4000FEF797FA38E5CF
:1021F000280000205468697320636F6C6F72206937
:10220000733A2025632563256325632563256300D1
:102210005468697320636F6C6F722069733A20256C
:1022200063256325632563000000000000000000B3
:10223000000000000000000000000000000000009E
:10224000000000000000000000000000000000008E
:1022500000000000000000000000800180018001FB
:102260008001800180018001800180018001800166
:10227000800180010000000080018001000000005A
:10228000000000000000000000000000CC00CC00B6
:10229000CC00CC00CC00CC0000000000000000000E
:1022A000000000000000000000000000000000002E
:1022B000000000000000000000000000000000001E
:1022C00000000000600C600C600C30063006FE1F41
:1022D000FE1F300638071803FE1FFE1F18031803E1
:1022E0008C018C018C01000000008000E003F80FDD
:1022F0009C0E8C1C8C188C009800F801E007800E56
:10230000801C8C188C189C18B80CF00FE00380000F
:1023100080000000000000000000000000000E1817
:102320001B0C110C11061106110311039B018E01E8
:10233000C038C06C60446044304430441844186C69
:102340000C380000000000000000E001F003380736
:10235000180618063003F001F000F8009C310E3327
:10236000061E061C061C063FFC73F0210000000040
:102370000000000000000000000000000C000C0045
:102380000C000C000C000C0000000000000000001D
:10239000000000000000000000000000000000003D
:1023A00000000000000000000000000200038001A7
:1023B000C000C0006000600030003000300030001D
:1023C000300030003000300060006000C000C0000D
:1023D0008001000300020000000020006000C00037
:1023E00080018001000300030006000600060006CD
:1023F00000060006000600060003000380018001BD
:10240000C00060002000000000000000000000008C
:1024100000000000C000C000D806F807E00130034B
:10242000380700000000000000000000000000006D
:10243000000000000000000000000000000000009C
:102440000000000080018001800180018001FC3FCC
:10245000FC3F8001800180018001800100000000BC
:10246000000000000000000000000000000000006C
:10247000000000000000000000000000000000005C
:102480000000000000000000000080018001000149
:1024900000018000000000000000000000000000BB
:1024A000000000000000000000000000000000002C
:1024B000E007E0070000000000000000000000004E
:1024C000000000000000000000000000000000000C
:1024D00000000000000000000000000000000000FC
:1024E00000000000000000000000C000C00000006C
:1024F00000000000000000000000000C000C0006BE
:102500000006000600030003000380038001800131
:102510008001C000C000C00060006000000000003A
:1025200000000000000000000000E003F007380E8B
:10253000180C0C180C180C180C180C180C180C187B
:102540000C180C18180C380EF007E00300000000FF
:102550000000000000000000000000018001C00138
:10256000F0019801880180018001800180018001D3
:102570008001800180018001800180010000000055
:1025800000000000000000000000E003F80F180C3D
:102590000C180C1800180018000C0006000380012D
:1025A000C000600030001800FC1FFC1F000000008D
:1025B00000000000000000000000E001F807180E15
:1025C0000C0C0C0C000C0006C003C007000C00181B
:1025D00000180C180C18180CF807E0030000000095
:1025E00000000000000000000000000C000E000FC2
:1025F000000F800DC00C600C600C300C180C0C0C23
:10260000FC3FFC3F000C000C000C000C0000000024
:1026100000000000000000000000F80FF80F180094
:1026200018000C00EC03FC071C0E001C001800181E
:1026300000180C181C0C180EF807E003000000002E
:1026400000000000000000000000C007F00F381C70
:10265000181818000C00CC03EC0F3C0E1C1C0C18B6
:102660000C180C18181C380EF007E00300000000CE
:1026700000000000000000000000FC1FFC1F000C18
:1026800000060006000380038001C001C000E000D6
:10269000600060007000300030003000000000007A
:1026A00000000000000000000000E003F007380E0A
:1026B000180C180C180C3806F007F007180C0C183A
:1026C0000C180C180C18380CF80FE0030000000070
:1026D00000000000000000000000E003F007380EDA
:1026E0001C0C0C180C180C181C1C381EF81BE019BC
:1026F0000018000C000C1C0EF807F0010000000090
:1027000000000000000000000000000000000000C9
:1027100000000000800180010000000000000000B7
:1027200000000000000000008001800100000000A7
:102730000000000000000000000000000000000099
:102740000000000080018001000000000000000087
:102750000000000000000000800180010001000175
:1027600080000000000000000000000000000000E9
:1027700000000000000000000010001C800FE003BB
:10278000F8001800F800E003800F001C00100000A3
:102790000000000000000000000000000000000039
:1027A0000000000000000000F81F00000000000012
:1027B000F81F000000000000000000000000000002
:1027C0000000000000000000000000000000000009
:1027D000000000000000000008003800F001C00701
:1027E000001F0018001FC007F0013800080000009B
:1027F00000000000000000000000E003F80F180CCB
:102800000C180C180018000C000600038001C00012
:10281000C000C00000000000C000C00000000000B8
:10282000000000000000000000000000E007181891
:102830000420C229224A11440944094409440922B6
:102840001113E20C024004201818E00700000000F9
:102850000000000000000000000080038003C006AC
:10286000C006C006600C600C301830183018F83FF5
:10287000F83F1C700C600C6006C006C00000000031
:1028800000000000000000000000FC03FC0F0C0C26
:102890000C180C180C180C0CFC07FC0F0C180C3046
:1028A0000C300C300C300C18FC1FFC070000000032
:1028B00000000000000000000000C007F01F3838D2
:1028C0001C300C70066006000600060006000600BC
:1028D000060006600C701C30F01FE00700000000CE
:1028E00000000000000000000000FE03FE0F060EC6
:1028F0000618061806300630063006300630063058
:10290000063006180618060EFE0FFE030000000033
:1029100000000000000000000000FC3FFC3F0C0035
:102920000C000C000C000C00FC1FFC1F0C000C0029
:102930000C000C000C000C00FC3FFC3F00000000F1
:1029400000000000000000000000F83FF83F180001
:102950001800180018001800F81FF81F18001800B9
:1029600018001800180018001800180000000000D7
:1029700000000000000000000000E00FF83F3C787D
:102980000E6006E007C00300030003FE03FE03C061
:1029900007C006C00EC03CF0F83FE00F000000008A
:1029A000000000000000000000000C300C300C3073
:1029B0000C300C300C300C30FC3FFC3F0C300C3039
:1029C0000C300C300C300C300C300C30000000009F
:1029D0000000000000000000000080018001800174
:1029E00080018001800180018001800180018001DF
:1029F00080018001800180018001800100000000D1
:102A000000000000000000000000000600060006B4
:102A10000006000600060006000600060006000686
:102A20000006180618063807F003E0010000000051
:102A30000000000000000000000006300618060C30
:102A4000060606038601C60066007600DE008E01DB
:102A500006030606060C0618063006600000000095
:102A6000000000000000000000001800180018001E
:102A70001800180018001800180018001800180096
:102A80001800180018001800F81FF81F00000000B8
:102A9000000000000000000000000EE01EF01EF02C
:102AA0001EF036D836D836D836D866CC66CC66CC4A
:102AB000C6C6C6C6C6C6C6C686C386C30000000054
:102AC000000000000000000000000C301C303C3012
:102AD0003C306C306C30CC30CC308C310C330C331F
:102AE0000C360C360C3C0C3C0C380C300000000052
:102AF00000000000000000000000E007F81F1C3884
:102B00000E70066003C003C003C003C003C003C04F
:102B100003C006600E701C38F81FE00700000000BC
:102B200000000000000000000000FC0FFC1F0C383B
:102B30000C300C300C300C300C18FC1FFC070C0057
:102B40000C000C000C000C000C000C00000000003D
:102B500000000000000000000000E007F81F1C3823
:102B60000E70066003E003C003C003C003C003C0CF
:102B700007E006630E3F1C3CF83FE0F700C0000092
:102B800000000000000000000000FE0FFE1F0638DD
:102B90000630063006300638FE1FFE07060306061E
:102BA000060C061806180630063006600000000005
:102BB00000000000000000000000E003F80F1C0C03
:102BC0000C180C180C001C00F803E00F001E003855
:102BD000063006300E301C1CF80FE0070000000025
:102BE00000000000000000000000FE7FFE7F80016A
:102BF00080018001800180018001800180018001CD
:102C000080018001800180018001800100000000BE
:102C1000000000000000000000000C300C300C3000
:102C20000C300C300C300C300C300C300C300C30C4
:102C30000C300C300C301818F81FE00700000000B2
:102C400000000000000000000000036006300630B5
:102C500006300C180C180C18180C180C380E30060E
:102C60003006700760036003C001C001000000006F
:102C7000000000000000000000000360C361C361A9
:102C8000C3616633663366336633663366336C1B03
:102C90006C1B6C1B2C1A3C1E380E380E00000000FA
:102CA000000000000000000000000FE00C70183071
:102CB0003018700C600EC00780038003C003E0066C
:102CC000700C301C18180C300E6007E0000000007B
:102CD0000000000000000000000003C006600C308F
:102CE0001C383818300C6006E007C00380018001F2
:102CF00080018001800180018001800100000000CE
:102D000000000000000000000000FC7FFC7F00606D
:102D100000300018000C000600038001C0006000B5
:102D2000300018000C000600FE7FFE7F000000004F
:102D300000000000000000000000E003E00360006D
:102D40006000600060006000600060006000600083
:102D50006000600060006000600060006000600073
:102D60006000E003E003000000003000300060007D
:102D700060006000C000C000C000C0018001800190
:102D800080010003000300030006000600000000AD
:102D900000000000000000000000E003E00300036A
:102DA000000300030003000300030003000300030B
:102DB00000030003000300030003000300030003FB
:102DC0000003E003E003000000000000C001C001B8
:102DD00060036003600330063006180C180C000016
:102DE00000000000000000000000000000000000E3
:102DF00000000000000000000000000000000000D3
:102E000000000000000000000000000000000000C2
:102E100000000000000000000000FFFFFFFF0000B6
:102E2000000000000000000000000C000C000C007E
:102E30000C000C000C00000000000000000000006E
:102E40000000000000000000000000000000000082
:102E50000000000000000000000000000000000072
:102E600000000000F003F8071C0C0C0C000FF00F22
:102E7000F80C0C0C0C0C1C0FF80FF01800000000E4
:102E800000000000000000000000180018001800FA
:102E900018001800D803F80F380C1818181818184C
:102EA000181818181818380CF80FD803000000006C
:102EB0000000000000000000000000000000000012
:102EC00000000000C003F007300E180C18001800B6
:102ED00018001800180C300EF007C00300000000A6
:102EE000000000000000000000000018001800189A
:102EF00000180018C01BF01F301C181818181818DC
:102F0000181818181818301CF01FC01B00000000FB
:102F100000000000000000000000000000000000B1
:102F200000000000C003F00F300C1818F81FF81F45
:102F3000180018003818301CF00FC00700000000FF
:102F400000000000000000000000800FC00FC00063
:102F5000C000C000F007F007C000C000C000C00003
:102F6000C000C000C000C000C000C00000000000E1
:102F70000000000000000000000000000000000051
:102F800000000000E00DF80F180E0C0C0C0C0C0CDF
:102F90000C0C0C0C0C0C180EF80FE00D000C0C0CAB
:102FA0001C06F807F00100000000180018001800C7
:102FB00018001800D807F80F381C18181818181817
:102FC00018181818181818181818181800000000E1
:102FD00000000000000000000000C000C000000071
:102FE00000000000C000C000C000C000C000C00061
:102FF000C000C000C000C000C000C0000000000051
:1030000000000000000000000000C000C000000040
:1030100000000000C000C000C000C000C000C00030
:10302000C000C000C000C000C000C000C000C000A0
:10303000C000F8007800000000000C000C000C003C
:103040000C000C000C0C0C060C038C01CC006C006A
:10305000FC009C018C030C030C060C0C000000000F
:1030600000000000000000000000C000C000C00020
:10307000C000C000C000C000C000C000C000C00050
:10308000C000C000C000C000C000C00000000000C0
:103090000000000000000000000000000000000030
:1030A000000000007C3CFF7EC7E383C183C183C175
:1030B00083C183C183C183C183C183C10000000078
:1030C0000000000000000000000000000000000000
:1030D000000000009807F80F381C18181818181866
:1030E00018181818181818181818181800000000C0
:1030F00000000000000000000000000000000000D0
:1031000000000000C003F00F300C18181818181831
:10311000181818181818300CF00FC0030000000021
:10312000000000000000000000000000000000009F
:1031300000000000D803F80F380C181818181818D9
:10314000181818181818380CF80FD8031800180099
:103150001800180018000000000000000000000027
:1031600000000000C01BF01F301C18181818181899
:10317000181818181818301CF01FC01B0018001859
:1031800000180018001800000000000000000000F7
:1031900000000000B007F003700030003000300085
:1031A00030003000300030003000300000000000FF
:1031B000000000000000000000000000000000000F
:1031C00000000000E003F003380E180C3800F00394
:1031D000C007000C180C380EF007E00300000000D8
:1031E0000000000000000000000000008000C0009F
:1031F000C000C000F007F007C000C000C000C00061
:10320000C000C000C000C000C00780070000000070
:1032100000000000000000000000000000000000AE
:10322000000000001818181818181818181818187E
:10323000181818181818381CF01FE01900000000A2
:10324000000000000000000000000000000000007E
:10325000000000000C18180C180C180C3006300672
:103260003006600360036003C001C001000000007D
:10327000000000000000000000000000000000004E
:1032800000000000C141C141C361636363636363C4
:103290003636363636361C1C1C1C1C1C0000000042
:1032A000000000000000000000000000000000001E
:1032B000000000001C38381C300C600660036003FE
:1032C000600360036006300C381C1C3800000000EE
:1032D00000000000000000000000000000000000EE
:1032E000000000001830301830187018600C600CA6
:1032F000E00CC006C00680038003800380018001CB
:10330000C001F0007000000000000000000000009C
:1033100000000000FC1FFC1F000C000600038001E1
:10332000C000600030001800FC1FFC1F00000000FF
:103330000000000000000000000000038001C00049
:10334000C000C000C000C000C000600060003000CD
:1033500060004000C000C000C000C000C000C0004D
:103360008001000300000000000080018001800156
:103370008001800180018001800180018001800145
:103380008001800180018001800180018001800135
:10339000800180018001000000006000C000C001C9
:1033A000800180018001800180010003000300068C
:1033B0000003000180018001800180018001800103
:1033C000C0006000000000000000000000000000DD
:1033D0000000000000000000F010F81F080F0000BF
:1033E00000000000000000000000000000000000DD
:1033F0000000000000000000183400080000002059
:103400003000000038170008483400083000002061
:103410000004000048170008000000000102030437
:1034200001020304060708090000FFFF000000D0A6
:103430000000000000000000282200081000180012
:08344000000000000000000084
:04000005080001AD41
:00000001FF
